:100000000C94AF040C94E0040C94E0040C94E00411
:100010000C94E0040C94E0040C94E0040C94E004D0
:100020000C94E0040C94E0040C94E0040C94E004C0
:100030000C94E0040C94A3440C94E0040C94E004AD
:100040000C94E0040C94E0040C94E0040C94E004A0
:100050000C94E0040C94E0040C94E0040C94136FF2
:100060000C94E0040C942D730C94B1730C94E00484
:100070000C94E0040C94E0040C94E0040C94E00470
:100080000C94E0040C94E0040C94E0040C94E00460
:100090000C9467730C94E5730C94E0040C94E306E1
:1000A0000C94E0040C94E0040C9461450C947245AB
:1000B0000C94E0040C94E0040C94E0040C94E00430
:1000C0000C94E0040C94E0040C94E0040C94E00420
:1000D0000C94E0040C94E0040C94E0040C94E00410
:1000E0000C94E0040C94E0040C94E0040C94E00400
:1000F0000C940C550C94E0040C94E0040C94E9541A
:100100000C94E0040C94E0040C94E0040C94E004DF
:100110000C94E0040C94E0040C94E0040C94E004CF
:100120000C94E0040C94E0040C94E0040C94E004BF
:100130000C94E00461726700626F6F7400656C7309
:10014000650066756E6374696F6E0068656C70003B
:100150006966006C730070656570007072696E741A
:100160000070730072657475726E00726D00727546
:100170006E0073746F7000737769746368007768DA
:10018000696C6500006162730061720061770062F2
:10019000617564006263006265657000627200628E
:1001A0007300627700636F6E73747261696E0064CE
:1001B000656C617900647200647700657200657730
:1001C0000066726565006765746B657900676574C4
:1001D0006E756D00696E62006973737472006D6193
:1001E00078006D696C6C6973006D696E006F757471
:1001F000620070696E6D6F6465007072696E74661E
:100200000070756C7365696E0072616E646F6D006D
:100210007369676E00736E6F6F7A6500006874743F
:10022000703A2F2F6269746C6173682E6E65740D5D
:100230000A536565204C4943454E534520666F720D
:10024000206C6963656E73650D0A50696E733A20A0
:1002500064302D32322C61302D32322020566172C2
:100260006961626C65733A20612D7A2C20333220EB
:10027000626974206C6F6E6720696E746567657261
:10028000730D0A4F70657261746F72733A202B2080
:100290002D202A202F20282029203C203C3D203EB4
:1002A000203E3D203D3D20213D203C3C203E3E2047
:1002B00021205E2026207C202B2B202D2D203A3D36
:1002C0000D0A436F6D6D616E64733A200000610F1B
:1002D000A90E950EF710F30D0F10AB0DCD0D1D0EE1
:1002E000C00E310E7E0E6B0E6017741417084B2370
:1002F0009B22910F630DF10E5D6F170F7D0F580E4E
:10030000EF13430EA10F3D0F5B1462616E6E6572B9
:10031000007072696E74202248656C6C6F20667282
:100320006F6D2050696E6F6363696F21200A20280A
:100330005368656C6C206261736564206F6E204247
:1003400069746C6173682076322E3020286329200E
:10035000323031342042696C6C20526F79290A2284
:100360002C667265652C22627974657320667265ED
:100370006522000000006578706563746564200084
:10038000756E657870656374656420006D6973735C
:10039000696E672000737472696E670020756E6401
:1003A0006572666C6F7700206F766572666C6F772A
:1003B000005E43005E42005E5500657870006F701D
:1003C000003A7862792B2D2A2F00656F66007661DE
:1003D00072006E756D6265720029007361766564E6
:1003E00000656570726F6D003A3D22003E2000632B
:1003F00068617200737461636B0073746172747509
:10040000700069640070726F6D7074000D0A46753B
:100410006E6374696F6E733A006F6F707300617210
:10042000670066756E6374696F6E000034444444FF
:100430004004404444444444444444440877478589
:10044000777878781111111111878884422222223D
:1004500022222222222222222224447242222222E8
:1004600022222222222222222227877426267C7CF4
:100470003D3D213D2B2B2D2D3A3D3E3D3E3E3C3D0D
:100480003C3C2F2F00868788898C8D93858B848AAE
:10049000A6A199A2949B8F9C9A9D979F9596989EB2
:1004A00090756E6B6E6F776E00756E6B6E6F776E9C
:1004B00000332E352064426D00332E332064426DAC
:1004C00000322E382064426D00322E332064426D9B
:1004D00000312E382064426D00312E322064426D8E
:1004E00000302E352064426D002D302E35206442C0
:1004F0006D002D312E352064426D002D322E3520B9
:1005000064426D002D332E352064426D002D342E53
:10051000352064426D002D362E352064426D002D4D
:10052000382E352064426D002D31312E3520644245
:100530006D002D31362E352064426D00323530206D
:100540006B622F7300353030206B622F73003120C7
:100550004D622F730032204D622F7300000001089E
:10056000090A000000000000000000000000000078
:1005700000060304000000000000000001028008E3
:1005800010200440200104080204080102108040E9
:10059000801020400102040810204080050502055B
:1005A000050505050402020202040404040405040E
:1005B0000402020206060606060606060000000001
:1005C0002300000029002C002F0032000000000052
:1005D00000000000000000000000250000002B00CB
:1005E0002E00310034000000000000000000000078
:1005F00000000000240000002A002D00300033001D
:10060000000000000000000000000C94580E0C9444
:10061000735D0C94994D0C9401470C94170F0C9436
:100620007B160C946A370C94083B0C9454370C944A
:10063000A6340C948D380C943D0F0C94835D0C946F
:1006400088380C94F30D0C947C5D0C943E290C942A
:10065000955A0C94A0380C9445050C943A470C9488
:10066000BF5D0C946C350C94A55D0C9431080C9412
:100670003A5D0C94910F0C94B35D0C94950E0C9410
:10068000AB1A0C944C380C9416380C948A3A0C948F
:100690008A370C94FA460C94EB3B0C945D350C9421
:1006A000BD460C94430E0C94E1720C940F340C94E0
:1006B0007E0E0C94EA390C94E1090C94BC3A0C942B
:1006C000A9460C9479380C941D0E0C94202D0C9492
:1006D000A0730C94A9470C9401730C9483380C9468
:1006E00032080C94EF430C94F10E0C94D25D0C94F0
:1006F000C6720C9441470C947D0F0C9456380C94A0
:10070000D9580C9456050C942F5D0C94B0290C9478
:1007100053430C9490420C94A10F0C9432440C94CB
:100720002C3B0C94DE4B0C94C4690C94E5350C9472
:1007300028050C945D3C0C94310E0C94AB0D0C947C
:10074000C1350C9483750C945F370C94C00E0C94D7
:100750009A740C94EA6C0C94ED430C948A5A0C94A1
:100760006B0E0C9451380C942E2D0C9428610C9423
:10077000E83A0C9488350C94F4150C9401520C94BE
:100780005B140C94745D0C949B220C943C360C947A
:1007900084050C94AD390C94AB5D0C94D2510C943F
:1007A00048470C945D6F0C94D2720C94D40C0C944A
:1007B0009D340C94C3380C94E5420C9415340C947D
:1007C000353A0C94F9390C946F380C94973A0C9490
:1007D0006B3A0C94B1160C9494310C94E3460C943F
:1007E000085E0C94A90E0C94743A0C9470390C9415
:1007F0005E3B0C9410340C94F7100C940B360C9454
:1008000022340C945A5D0C944A3D0C946A380C9432
:100810005B380C9477160C94F6720C947E380C941A
:1008200040310C9497350C94D3350C948B460C9432
:100830009F370C94874D0C9402470C94EF130C9443
:100840004B230C94630D0C94AA5A0C949A360C9476
:1008500060380C94E0370C949E350C94043A0C9458
:1008600055050C9415470C947D3A0C94CF3B0C9491
:10087000DF2F0C94CD0D0C943B420C9492410C94C0
:100880002B370C9474140C940F100C94FC400C94A3
:1008900045570C94B95D0C94F9040C941F3A0C94D0
:1008A000CA350C94E6410C9432750C949F750C94E7
:1008B00016360C94D23A0C94D4460C94512F0C94C6
:1008C00074380C94610F0C944A190C94D5160C943E
:1008D00050360C94DF2D0C94E03C0C9431050C94B4
:1008E00000060C94322D0C9428360C94143A0C9477
:1008F000A63A0C9468360C94432E0C942A3A0C9425
:1009000033470C9417080C94865A0C94AC3B0C9407
:100910003E410C942F110C940F3A0C9475370C94A3
:10092000EA350C94A4460C9465380C9460170C942A
:10093000A65A0C9423340C949F5D0C945D5DF904CD
:100940000006AB1A202D512FED434557865A8A5A7F
:100950002F5D085E2861EA6C9A7483752E2D112430
:100960001FBECFEFD1E8DEBFCDBF00E00CBF13E26A
:10097000A0E0B2E0EAE4F5E001E00BBF02C00790BE
:100980000D92AC31B107D9F717E3ACE1B3E201C086
:100990001D92A934B107E1F719E0CCE5D9E000E0F8
:1009A00006C022970109FE010BBF0E94A27BCE3335
:1009B000D10780E00807A9F70E9492750C949382F2
:1009C0000C94000060E08AED9CE20E94D42CE0913F
:1009D0006436F09165360280F381E02D45E050E009
:1009E0006BE37CE084E696E319948AED9CE20C9438
:1009F000C92B0F9300E020E040E060E08CE193E23F
:100A00000E9477750F91089561E089E00E94D67188
:100A100061E089E00E949E718CB580618CBD8CB5CF
:100A200080648CBD61E08CE00E949E7161E08AE090
:100A30000C949E712CB5982F93702C7F922B9CBD9B
:100A40009DB582FB882780F99E7F982B9DBD0895D8
:100A50002091522330E080915323281B3109C90192
:100A600008958091532390915223891750F4E82FD1
:100A7000F0E0EC5AFC4D208130E08F5F80935323EF
:100A800002C02FEF3FEFC9010895E09153238091F9
:100A90005223E81730F4F0E0EC5AFC4D208130E0AE
:100AA00002C02FEF3FEFC90108950895CF92DF9262
:100AB000EF92FF920F931F93CF93DF937C01CB01B3
:100AC0008A0120912E23222391F0EB016B01C40EA9
:100AD000D51E09C06991D701ED91FC910190F0817B
:100AE000E02DC7011995CC15DD05A1F703C0642FD2
:100AF0000E94BA06C801DF91CF911F910F91FF901C
:100B0000EF90DF90CF900895CF93DF931F92CDB7F2
:100B1000DEB7698320912E232223D1F020912F2349
:100B2000203240F021E030E0FC013383228320E0DA
:100B300030E015C080913023E82FF0E0EF5CFC4DF1
:100B4000998190838F5F8093302380932F2305C0FA
:100B500061E0CE0101960E94BA0621E030E0C901B1
:100B60000F90DF91CF910895FC011382128248EE1D
:100B700053E060E070E0448355836683778385E4C7
:100B80009CE0918380830895109253231092522306
:100B90001092302310922F230C940406862F41329A
:100BA00008F040E264E573E20E94220610925323AB
:100BB00080935223089521E00C94CE0581E0809328
:100BC0002E23609351231092302310922F230895E7
:100BD0000C94DE050F93062F21E040912F2361E353
:100BE00073E2809151230E94670610923023109285
:100BF0002F2310922E230F91089561E00C94EA05A3
:100C000082E293E20C94B40510927D2381E08093FC
:100C10007B2310927A2361E080E10E94D67161E02B
:100C20008FE00E94D671E9EBF0E080818E7F8083B7
:100C300080818D7F808388E48093B80085E48093F1
:100C4000BC000895413208F03FC090917D2391117E
:100C5000FCCF91E090937D2320937B232FEF209373
:100C6000742310927923242F21502093782390937A
:100C70007C2390917C23880F892B80937C23809107
:100C80007A23813041F410927A2380917C238093DF
:100C9000BB0085EC01C085EE8093BC0080917D2374
:100CA0008130E1F380917923841710F44091792306
:100CB0002EE733E2FB01D90102C08D9181938A2F87
:100CC000821B8417D0F301C040E0842F08950F9356
:100CD000413208F046C090917D239111FCCF92E003
:100CE00090937D2300937B239FEF90937423109226
:100CF000792340937823FB016EE773E2DB0102C0A6
:100D000091919D939A2F961B9417D0F310927C2368
:100D100090917C23880F892B80937C2380917A2368
:100D2000813041F410927A2380917C238093BB0020
:100D300085EC01C085EE8093BC00222321F08091D8
:100D40007D238230E1F3809174238F3F61F08091A5
:100D50007423803251F080917423803341F483E016
:100D600007C081E005C080E003C082E001C084E0EC
:100D70000F910895613298F420917D23243089F4F5
:100D800060937623FC018EE993E2DC0102C021919D
:100D90002D932A2F281B2617D0F380E0089581E099
:100DA000089582E0089585ED8093BC008091BC0099
:100DB00084FDFCCF10927D23089585EC8093BC00C8
:100DC00010927D2308951F920F920FB60F92112457
:100DD0000BB60F922F933F934F935F936F937F9335
:100DE0008F939F93AF93BF93EF93FF938091B9003D
:100DF000887F803609F49FC058F5883209F45BC0BB
:100E000090F4803109F452C038F4882309F4F8C012
:100E1000883009F0F9C04AC0883109F44CC08032EA
:100E200009F0F2C05CC0803409F46BC038F4803340
:100E300009F455C0883309F0E7C054C0803509F47F
:100E400054C0883509F462C0883409F0DDC0DAC0C6
:100E5000883909F4CBC0A8F4883709F46CC038F499
:100E6000883609F468C0803709F0CEC064C088387D
:100E700009F4BCC0803909F464C0803809F0C4C0EA
:100E800060C0803B09F48AC038F4803A09F46BC032
:100E9000883A09F0B9C082C0803C09F4ABC0883CF4
:100EA00009F4A8C0883B09F0AFC08DC080917C23B5
:100EB0008093BB0012C0909179238091782398177A
:100EC00088F580917923E82FF0E0E258FC4D90817D
:100ED0009093BB008F5F8093792385EC88C08093CB
:100EE000742390C08093742356C08091792390918D
:100EF000BB00E82FF0E0E258FC4D90838F5F8093B9
:100F0000792390917923809178236DC08091792302
:100F10009091BB00E82FF0E0E258FC4D90838F5F8A
:100F20008093792380917B2381116CC081E0809331
:100F30007A2384EA60C083E080937D231092752336
:100F4000CCCF80917523803208F050C080917523FA
:100F50009091BB00E82FF0E0EE53FC4D90838F5F43
:100F600080937523BACF80917523803230F4E0915D
:100F70007523F0E0EE53FC4D10820E94D306609181
:100F80007523E091BE23F091BF2370E082EC93E2E1
:100F90001995109275230E94DD0636C084E0809377
:100FA0007D231092772310927623E091C023F09155
:100FB000C123199580917623811105C081E080932A
:100FC000762310929E2380917723E82FF0E0E2565B
:100FD000FC4D90819093BB008F5F8093772390911D
:100FE000772380917623981708F477CF85E880934C
:100FF000BC000AC085EC8093BC0010927D2304C025
:10100000109274230E94D306FF91EF91BF91AF918C
:101010009F918F917F916F915F914F913F912F9110
:101020000F900BBE0F900FBE0F901F9018950F934F
:101030001F93CF93DF9300D01F92CDB7DEB78E0101
:1010400008541743222717FD2095322FB801C901F4
:101050000F900F900F900F90DF91CF911F910F91F4
:10106000089508951EBA08958F929F92AF92BF92ED
:10107000CF92DF92EF92FF92CF93DF93EC01109229
:101080003029109231291092322910923329809000
:10109000C92A912CA12CB12C27C0F601EE0FFF1FFD
:1010A000EE0FFF1FE75CF64D60817181CE010E945B
:1010B0004A7E009761F46894C7F8C0923029D092B4
:1010C0003129E0923229F092332981E01BC08FEF61
:1010D000C81AD80AE80AF80AC0923029D0923129F1
:1010E000E0923229F0923329C0903029D0903129F2
:1010F000E0903229F0903329C814D904EA04FB04A3
:1011000064F280E0DF91CF91FF90EF90DF90CF907D
:10111000BF90AF909F908F900895CF92DF92EF9203
:10112000FF920F931F93CF93DF937C01CAE0D3E02C
:1011300027C0BE01C7010E94FC7D6C01CE010E9448
:10114000057E8C010F5F1F4F0C0F1D1FCD2889F4EA
:1011500084EA8EBBC801AA2797FDA095BA2F809379
:10116000302990933129A0933229B093332981E01B
:101170000BC0C8010E94057EEC012196C00FD11F53
:10118000FE0184918111D5CFDF91CF911F910F91F5
:10119000FF90EF90DF90CF900895E0E0F0E0199499
:1011A0001F93CF93DF93182FC6E7D3E007C0CE017C
:1011B0000E94057E0196C80FD91F11501111F7CF5B
:1011C000CE01DF91CF911F91089587FD0EC0E82FCA
:1011D000E695F0E0E45DFB4FE49180FF02C08E2FC6
:1011E00002C08E2F82958F70089584E008958EB38B
:1011F0008C3391F08EB3843879F08EB3883861F0F7
:101200008EB3893849F08EB38E3331F09EB381E0CE
:10121000953819F080E0089581E00895982F905353
:101220009A3048F09153963030F0905E81E09630DD
:1012300018F080E0089581E00895982F80538A3057
:1012400038F0892F992787FD90950E94F47D875566
:1012500008950F931F936150710981E090E002C0DF
:10126000880F991F6A95E2F7AA2797FDA095BA2FD4
:10127000E0910E29F0910F29408551856285738593
:1012800084239523A623B72301E010E020E030E07B
:10129000892B8A2B8B2B19F400E010E09801B80100
:1012A000C9011F910F910895DF92EF92FF920F9362
:1012B0001F93CF93DF937C01EB01D42E1092302942
:1012C00010923129109232291092332924C0BE0184
:1012D000C7010E94FC7D009719F1DD2011F097FDF8
:1012E00021C000913029109131292091322930916B
:1012F00033290F5F1F4F2F4F3F4F0093302910931B
:1013000031292093322930933329CE010E94057E62
:101310000196C80FD91FFE0184918111D8CF03C057
:1013200081E001C080E0DF91CF911F910F91FF908C
:10133000EF90DF900895FC0121812053828181117B
:1013400002C0822F08958053FAE02F9F800D112450
:101350000895EF92FF920F931F93CF93DF93082F7F
:101360008091A324E82FF0E0EE0FFF1FED59FB4D15
:10137000C081D18160E00E94D671FC2EED2ECE019D
:101380000E94C16F19E00BC0602F61708091A3248F
:101390000E94D6718F2D9E2D0E94C16F069511500F
:1013A00099F761E08091A3240E94D671CE01880F45
:1013B000991FDF91CF911F910F91FF90EF900C94A7
:1013C000C16F9091A324911112C0E0916124F0911A
:1013D0006224309709F01994E0916436F0916536F3
:1013E0000190F081E02D682F84E696E319940C9427
:1013F000A909CF93DF930E94D008EC01FE0121964A
:101400008491882319F00E94E109F8CFDF91CF91F0
:101410000895E091CA2CF091CB2C9CE2E83CF907AE
:1014200048F48193F093CB2CE093CA2C0E94E109FD
:1014300081E0089587E00E94E10980E00895CF935C
:10144000DF93EC01FE01219684918F3F69F08111B9
:1014500006C0FE018491882339F080E202C0803604
:1014600089F30E94E109EECFDF91CF910895909327
:101470006224809361240895CF93DF93EC0102C02E
:101480000E94E10989918111FBCFDF91CF910895ED
:10149000EF92FF920F931F93CF93DF93CDB7DEB7F9
:1014A000EDB6FEB6FC01448155814F5F5F4F2DB70D
:1014B0003EB7241B350B0FB6F8943EBF0FBE2DBFB1
:1014C0000DB71EB70F5F1F4F20E030E0B8010E943C
:1014D000FB78C8010E943C0A0FB6F894FEBE0FBE0E
:1014E000EDBEDF91CF911F910F91FF90EF90089586
:1014F0000C94E109CF93DF9300D000D0CDB7DEB7D5
:101500004AE0BC01CE0101960E944378CE010196CB
:101510000E94480ACE0101960E94247726960FB6B3
:10152000F894DEBF0FBECDBFDF91CF910895CF936A
:10153000DF9300D000D0CDB7DEB74AE0BC01CE01CA
:1015400001960E941778CE0101960E94480ACE01AA
:1015500001960E94247726960FB6F894DEBF0FBE40
:10156000CDBFDF91CF9108958DE00E94E1098AE01F
:101570000C94E109CF93DF9300D000D0CDB7DEB754
:10158000AB01BC012AE0CE0101960E94EA77CE01B0
:1015900001960E94480ACE0101960E9424770E947B
:1015A000B40A26960FB6F894DEBF0FBECDBFDF910A
:1015B000CF910895CF93DF9300D000D0CDB7DEB7A1
:1015C0004AE0BC01CE0101960E944378CE0101960B
:1015D0000E94480ACE0101960E9424770E94B40A14
:1015E00026960FB6F894DEBF0FBECDBFDF91CF9128
:1015F00008950E94E1090C94B40ACF93DF93EC01A3
:1016000002C00E94E10989918111FBCFDF91CF9146
:101610000C94B40A0E94F9090C94B40ACF93C0E068
:101620000EC084E0C89FF0011124E75CF64D808174
:1016300091810E943C0A80E20E94E109CF5F809183
:10164000C92AC81770F3CF910C94B40ACF93DF93D3
:10165000809138298130E1F4C0913429D091352925
:10166000CA5CDA42C11582E0D80790F40E94B40A3D
:1016700003C08DE20E94E1092197CE3F8FEFD8078A
:10168000C1F78EE50E94E109DF91CF910C94B40A75
:10169000DF91CF9108955F926F927F928F929F9288
:1016A000AF92BF92CF92DF92EF92FF920F931F9370
:1016B000CF93DF93CDB7DEB7A0970FB6F894DEBF18
:1016C0000FBECDBF480159015E2C61157105810522
:1016D000910531F419823E0122E0620E711C16C0A0
:1016E0008E010F5F1F4FC42ED12CE12CF12CA701CE
:1016F00096010E94587BF80161938F013F01B90167
:10170000CA01611571058105910589F7811491045C
:10171000A104B10439F1CE0101969301281B390BC4
:10172000C901AA2797FDA095BA2F881A990AAA0A73
:10173000BB0A08C0852D0E94E10931E0831A910897
:10174000A108B108181419041A041B049CF30AC058
:10175000F30180818A3014F4805D01C0895C0E94AD
:10176000E10903C08E010F5F1F4FF1E06F1A71088E
:101770006016710668F7A0960FB6F894DEBF0FBE2C
:10178000CDBFDF91CF911F910F91FF90EF90DF9030
:10179000CF90BF90AF909F908F907F906F905F9011
:1017A00008958F929F92AF92BF92EF920F931F93E3
:1017B000CF93DF9300D01F92CDB7DEB74B015C0112
:1017C00097FF17C08DE229833A834B835C830E9485
:1017D000E109B094A09490948094811C911CA11C68
:1017E000B11C29813A814B815C8121503109410929
:1017F0005109E02E89019A014AE0C501B4010E9415
:101800004B0B0F900F900F900F90DF91CF911F9186
:101810000F91EF90BF90AF909F908F9008950F938E
:101820008AB50E94E508E82FF0E0EE0FFF1FE85FA1
:10183000FD4F0190F081E02D1995809111298823A9
:1018400019F181E59CE00E943C0A6EB370E080E0F3
:1018500090E000E220E030E0A9010E94D10B87E592
:101860009CE00E943C0A609130297091312980915E
:1018700032299091332920E030E0A9010E94D10B58
:1018800080E20F910C94E1090F910895EF920F936C
:101890001F9350E3E52E00E010E0980140E10E9424
:1018A0004B0B1F910F91EF90089580911129882380
:1018B00051F18BE59CE00E943C0A609134297091C3
:1018C000352980913629909137290E94460C80E273
:1018D0000E94E1098AE492E20E943C0A6EB370E041
:1018E00080E090E00E94460C80E20E94E1098DE5D4
:1018F0009CE00E943C0A6AB570E080E090E00E94A3
:10190000460C0C94B40A0895CF93DF931F921F9254
:10191000CDB7DEB71092A3246A8389830E94260B79
:1019200089810E94F9096A81662319F0862F0E9435
:101930000A0B0E94550C61E070E082EE93E20E9477
:10194000AB7D65E00E94840C4091102924E0429F09
:10195000F0011124E25FFA4D20910C2530910D2504
:10196000E217F30718F489E00E94A10C60837183E9
:101970008283938341504093102908958DEF809383
:10198000102982E099E290930F2980930E2960E05C
:1019900070E0CB010E94A40CEEE0F5E2F0930D257F
:1019A000E0930C2510820895E0910C25F0910D250F
:1019B0002091102994E0299F90011124225F3A4D33
:1019C000E217F30718F083E00E94A10C8193F093D3
:1019D0000D25E0930C250895CF93DF93EC0102C011
:1019E0000E94D40C89918111FBCFDF91CF910C948F
:1019F000D40C2091C92A243618F089E10E94A10C48
:101A000034E0239FF0011124E75CF64D918380833D
:101A1000738362832F5F2093C92A089564E00E9434
:101A2000840CE0911029EF3F19F489E00E940E0D1B
:101A3000EF5FE093102984E0E89FF0011124E25F5A
:101A4000FA4D60817181828193810895809110297E
:101A50008F5FE0910E29F0910F299081890F80937B
:101A600010290E94110D70930D2560930C250E9482
:101A7000110D0E94110D70930F2960930E29089586
:101A8000682F82E00E94840C0F931F93E0910E292F
:101A9000F0910F29008111812281338106171707E8
:101AA000280739071CF48BE10E94400D660F771F51
:101AB000660F771FE61BF70B60817181828193812E
:101AC0001F910F9108950F931F9361E070E080E0E4
:101AD00090E00E94440D6150710981E090E002C0E5
:101AE000880F991F6A95E2F7AA2797FDA095BA2F4C
:101AF000E0910E29F0910F290484F585E02D4085B1
:101B000051856285738584239523A623B72301E03D
:101B100010E020E030E0892B8A2B8B2B19F400E0B9
:101B200010E09801B801C9011F910F910895E0914B
:101B30000E29F0910F2990E0A0E0B0E040815181A2
:101B400062817381481759076A077B071CF48BE190
:101B50000E94400D08950F931F9382E00E94970DFD
:101B600080910E2990910F29FC013497DC01189780
:101B700000811181228133810C9004C03595279515
:101B8000179507950A94D2F701701127222733275A
:101B9000B801C9011F910F9108950F931F9382E01F
:101BA0000E94970D80910E2990910F29FC01389782
:101BB00001E010E020E030E0008004C0000F111FC1
:101BC000221F331F0A94D2F7FC0134978081918140
:101BD000A281B381082B192B2A2B3B2BB801C901F9
:101BE0001F910F9108950F931F9382E00E94970D0C
:101BF00080910E2990910F29FC01389701E010E0A7
:101C000020E030E0008004C0000F111F221F331FAE
:101C10000A94D2F70095109520953095FC013497E1
:101C200080819181A281B381082319232A233B2338
:101C3000B801C9011F910F91089583E00E94970D8B
:101C4000E0910E29F0910F293C9780819181A2812A
:101C5000B381892B8A2B8B2B11F00C94CD0D0C9416
:101C6000F30D81E00E94970DE0910E29F0910F296C
:101C7000349760817181828193810E94996F60E0C5
:101C800070E0CB01089583E00E94970D80910E29AA
:101C900090910F29FC013C97208131814281538131
:101CA000FC013897DC01149760818C910C9436729A
:101CB00082E00E94970D80910E2990910F29FC01DE
:101CC0003897DC01149760818C910E949E7160E0CE
:101CD00070E0CB01089582E00E94970D80910E295B
:101CE00090910F29FC013897DC01149760818C9149
:101CF0000E94D67160E070E0CB0108950F931F93AE
:101D000081E00E94970DE0910E29F0910F29349700
:101D100080810E940D728C01222717FD2095322FA1
:101D2000B801C9011F910F91089582E00E94970D9B
:101D300080910E2990910F29FC0138976081718163
:101D4000FC01349780810E94567060E070E0CB0106
:101D500008950F931F9381E00E94970DE0910E2943
:101D6000F0910F29349780810E942D708C012227D9
:101D700017FD2095322FB801C9011F910F910895C9
:101D8000CF93DF9383E00E94970D20910E2930912D
:101D90000F29F901B291A29192918291E9012897BC
:101DA000488159816A817B8184179507A607B70707
:101DB0000CF40BC0E9012C97488159816A817B8121
:101DC000481759076A077B072CF4688179818A8153
:101DD0009B8104C06081718182819381DF91CF9169
:101DE0000895CF93DF9382E00E94970D90910E2982
:101DF00080910F29E92FF82FEF01289772916291B6
:101E00005291429188819981AA81BB81841795075B
:101E1000A607B7072CF4608171818281938104C089
:101E2000688179818A819B81DF91CF910895CF93D9
:101E3000DF9382E00E94970D90910E2980910F29E7
:101E4000E92FF82FEF0128977291629152914291F8
:101E500088819981AA81BB81481759076A077B0746
:101E60002CF4608171818281938104C068817981C1
:101E70008A819B81DF91CF9108950F931F9381E019
:101E80000E94970DE0910E29F0910F2934978081DF
:101E90009181A281B381B7FD0CC001E010E020E088
:101EA00030E0892B8A2B8B2B39F400E010E098016D
:101EB00003C00FEF1FEF9801B801C9011F910F91E7
:101EC00008950F931F9381E00E94970DE0910E29D2
:101ED000F0910F293497008111812281338137FFDE
:101EE00007C030952095109501951F4F2F4F3F4FFC
:101EF000B801C9011F910F91089582E00E94970DCA
:101F000080910E2990910F29FC0134970190F08166
:101F1000E02DDC0118978C91808360E070E0CB01AC
:101F2000089581E00E94970DE0910E29F0910F290C
:101F300034970190F081E02D608170E080E090E0C6
:101F40000895CF92DF92EF92FF9281E00E94970D69
:101F500040911A0250911B0260911C0270911D0267
:101F6000C0901E02D0901F02E0902002F09021024B
:101F7000DB01CA0129E1B695A795979587952A9522
:101F8000D1F78C0D9D1DAE1DBF1D37E0440F551FB1
:101F9000661F771F3A95D1F784279527A627B7277D
:101FA00080931A0290931B02A0931C02B0931D020F
:101FB000BC01CD019F77E0910E29F0910F29349754
:101FC00020813181428153810E947A7B362F272FD5
:101FD000B701A601E9E17695679557954795EA958A
:101FE000D1F74151514462457142F7E0CC0CDD1C00
:101FF000EE1CFF1CFA95D1F74C255D256E257F253B
:1020000040931E0250931F0260932002709321029E
:10201000632F722FFF90EF90DF90CF9008958F92F3
:102020009F92AF92BF92CF92DF92EF92FF920F9367
:102030001F93CF93DF9300D01F92CDB7DEB783E01D
:102040000E94970D00910E2910910F29F8013897E1
:1020500080809180A280B380F8013C97608171817B
:1020600082819381A50194010E94487B28EE33E090
:1020700040E050E00E94587B69017A0160E271EA19
:1020800087E090E0A50194010E94587B2750310918
:1020900041095109F801349761E0808129833A832D
:1020A0004B835C830E949E7129813A81890158018A
:1020B00081E0A81AB1081DC0E0910E29F0910F2906
:1020C000349761E080810E94D671C8010E94C16F7F
:1020D000E0910E29F0910F29349760E080810E94F1
:1020E000D671C5010E94C16FE1E0CE1AD108E108A6
:1020F000F108C114D104E104F104F1F660E070E0EC
:10210000CB010F900F900F900F90DF91CF911F9107
:102110000F91FF90EF90DF90CF90BF90AF909F9086
:102120008F900895682F81E00E94840C803218F00F
:102130008EE00E9492100895CF92DF92EF92FF926C
:102140000F931F93CF93DF9300D01F92CDB7DEB7CD
:102150006B017C01862F29833A834B835C830E9429
:10216000961029813A814B815C81C114D104E1042C
:10217000F10451F4BA01A90184E696E30E941974AE
:10218000C12CD12C760124C08601000F111F0D59DE
:102190001B4D60E472E48FE090E00E94587B235076
:1021A0003109F8013183208361E08C2D0E949E71FA
:1021B00061E08C2D0E94D671F801808191810E948E
:1021C000C16FF801C080D180EE24D7FCE094FE2CD2
:1021D000B601C7010F900F900F900F90DF91CF9134
:1021E0001F910F91FF90EF90DF90CF90089582E0C4
:1021F0000E94970D80910E2990910F29FC0138972C
:102200002081318142815381FC0134976081718149
:10221000828193810E949C1060E070E0CB01089560
:10222000CF93C82F0E949610C093A324CC23A9F06B
:10223000EC2FF0E0EE0FFF1FED59FB4D20813181B7
:10224000232B59F46C2F70E080E090E020E835E219
:1022500040E050E0CF910C949C10CF91089584E120
:102260000E949210CF92DF92EF92FF92CF93C82FED
:102270000E94110D6B017C010E94110D9B01AC01AC
:10228000CE3509F4B7C0C8F4CB32B1F148F4C63248
:1022900009F4ABC0CA32D1F1C53209F0C6C042C0A0
:1022A000CF32C9F120F4CD3209F0BFC02AC0CC33FF
:1022B000F1F1CE3309F0B9C045C0C73809F475C093
:1022C00078F4C43809F449C020F4CC3709F0ADC023
:1022D00087C0C53809F44CC0C63809F0A6C05EC036
:1022E000C93809F450C008F46EC0CA3809F487C070
:1022F000CB3809F09AC08BC06C0D7D1D8E1D9F1DC3
:102300008DC06C197D098E099F0988C0C701B6016F
:102310000E94487B83C0A70196010E947A7BCA0174
:10232000B9017CC0A70196010E947A7B77C061E069
:1023300070E080E090E02C153D054E055F050CF443
:102340006DC04AC061E070E080E090E0C216D30644
:10235000E406F5060CF462C03FC061E070E080E086
:1023600090E0C216D306E406F5060CF057C034C060
:1023700061E070E080E090E02C153D054E055F05C2
:102380000CF04CC029C061E070E080E090E02C15BA
:102390003D054E055F0509F041C01EC06115710580
:1023A0008105910559F061E005C061E0232B242BE4
:1023B000252B29F4CD28CE28CF2809F460E070E041
:1023C00080E090E02BC061E070E080E090E02C15B0
:1023D0003D054E055F0511F160E070E0CB011EC0C8
:1023E0006C297D298E299F2919C06C217D218E2180
:1023F0009F2114C06C257D258E259F250FC004C00C
:10240000660F771F881F991FCA94D2F707C004C0B0
:102410009595879577956795CA94D2F7CF91FF9058
:10242000EF90DF90CF900C94A40C8AE00E94921061
:10243000682F80E00E94840CCF92DF92EF92FF928F
:102440006B017C010E942909672B682B692B19F409
:1024500083E00E941812C701B601FF90EF90DF9051
:10246000CF900C94440D60E00E94840C0E94E1091E
:1024700080E00E94331240913429509135296091B7
:10248000362970913729FC0140835183628373831D
:10249000209138292483809111298823E1F00E941A
:1024A000B40A8FE59CE00E943C0A6091382970E0F4
:1024B00080E090E00E94460C80E20E94E109609179
:1024C00034297091352980913629909137290E94BD
:1024D000460C0C94B40A0895EF920F931F9310E3E7
:1024E000E12E00E010E0980142E00E944B0B1F91AA
:1024F0000F91EF9008958F929F92AF92BF92CF92DB
:10250000DF92EF92FF920F931F93CF93DF9300D050
:102510001F92CDB7DEB7E82EF62E60E070E0CB015B
:102520000E94440D8B019C016E2D70E080E090E0D4
:10253000061717072807390734F40E94B40A00E089
:1025400010E0980139C10E94440D6B012BC1853206
:1025500009F01EC1D60111968C91803331F0BFEF86
:10256000CB1ADB0A80E2E82E05C0E2E0CE0ED11CD9
:1025700000E3E02ED6018C918A3229F0F60120E0AA
:1025800030E0A9011CC06F2D70E080E090E0F39472
:102590000E94440D9B01AC01BFEFCB1ADB0A19C0AE
:1025A000AAE0B0E00E943D7B9B01AC01C801AA27D4
:1025B00097FDA095BA2F280F391F4A1F5B1F6F0187
:1025C0000191112707FD1095005311090A301105DB
:1025D00038F3F60180818436A9F064F4823609F478
:1025E00049C00CF08AC0833209F4ABC0853209F0CF
:1025F000C5C0A5C0853751F18837B1F0833709F0E0
:10260000BDC04AC06F2D70E080E090E029833A831E
:102610004B835C830E94440D0E2D29813A814B81AE
:102620005C810E94D10BB2C06F2D70E080E090E021
:1026300029833A834B835C830E94440D29813A812C
:102640004B815C8189019A0140E111C06F2D70E0DE
:1026500080E090E029833A834B835C830E94440DA1
:1026600029813A814B815C8189019A014AE00E946B
:102670004B0B8CC06F2D70E080E090E029833A8393
:102680004B835C830E94440D29813A814B815C819C
:1026900089019A0142E0EBCF6F2D70E080E090E07D
:1026A00029833A834B835C830E94440D162F972F16
:1026B000FB0101900020E9F73197E61BF70B298118
:1026C0003A814B815C8149015A018E1A9F0AA10807
:1026D000B1080AC080E299830E94E109F1E08F1AF3
:1026E0009108A108B1089981181419041A041B044F
:1026F0008CF3812F0E943C0A49C08F2C912CA12C75
:10270000B12CC501B40129833A834B835C830E94B9
:10271000440D862F0E94E10929813A814B815C8119
:102720002150310941095109DA01C9010196A11D60
:10273000B11D181619061A061B061CF327C085E2E0
:1027400022C06F2D70E080E090E029833A834B83B4
:102750005C830E94440D162F29813A814B815C8154
:10276000211531054105510529F07727882799273B
:102770000E949C10812F0E94101108C085E20E94C7
:10278000E109D6018C910E94E1090CC0F39407C0C5
:102790008A3019F40E94B40A02C00E94E109BFEF16
:1027A000CB1ADB0AF60180818111D1CE1092A324CD
:1027B0000F2D10E020E030E0B801C9010F900F901C
:1027C0000F900F90DF91CF911F910F91FF90EF909D
:1027D000DF90CF90BF90AF909F908F90089562E070
:1027E00081E00C947B1244E150E06FEF70E08AE4EA
:1027F00094E20C94387E8A3050F4E82FF0E0EE0F2B
:10280000FF1FE65BFB4D8FEF9FEF91838083089561
:10281000CF92DF92EF92FF92CF93DF936A017B0119
:10282000EAE4F4E220E030E0419151914F3F5F4F04
:1028300001F5F901EE0FFF1FE65BFB4D91838083ED
:10284000E901CC0FDD1FCC0FDD1FFE01EE5DFB4D5E
:10285000C082D182E282F3820E945D6FC650DC4D5D
:102860006C0D7D1D8E1D9F1D688379838A839B83DC
:1028700008C02F5F3F4F2A303105B1F687E10E9433
:10288000A10CDF91CF91FF90EF90DF90CF90089552
:1028900020916024222369F0E0915E2424E0E29FED
:1028A000F0011124EE5DFB4D60837183828393837D
:1028B00008950C94996F81E00E94970DE0910E2984
:1028C000F0910F29349760817181828193810E94F8
:1028D000481460E070E0CB0108958F372FE1920734
:1028E00010F40C94BD81089582E00E94970D8091B0
:1028F0000E2990910F29FC013897DC011497608113
:102900008D919C910E946D1460E070E0CB01089560
:102910000F931F93CF93DF939C01DB01FB01019089
:102920000020E9F73197E61BF70BE80FF91FEF37A7
:10293000FF41A0F4CA2FD72F89010C1B1D0B02C029
:102940000E946D14C8018C0F9D1F69916111F8CF11
:10295000DF91CF911F910F910C946D14DF91CF9166
:102960001F910F9108958F372FE1920710F40C9467
:1029700091818FEF08950F93209138298091342908
:1029800090913529223039F0233041F0213051F433
:10299000FC01808105C0FC01849102C00E94B31437
:1029A0008ABD03C08AE10E94921080911129882378
:1029B000D9F08CE30E94E1098AB5803220F08AB513
:1029C0000E94E1090DC08CE50E94E1096AB570E042
:1029D00080E090E000E220E030E0A9010E94D10B0D
:1029E0008EE30F910C94E1090F91089580913429A1
:1029F00090913529A0913629B09137290196A11DD2
:102A0000B11D8093342990933529A0933629B09332
:102A1000372980911129882381F08BE50E94E109F3
:102A20006091342970913529809136299091372908
:102A30000E94460C8DE50E94E1090C94BB14EF92B4
:102A4000FF920F931F93CF93DF93EC011DE009E0FA
:102A50006AE0F62E8AB5823241F4DF91CF911F9160
:102A60000F91FF90EF900C94F6148AB58C3589F590
:102A70000E94F6148AB5823769F018F48E3649F54B
:102A800005C0843729F0883721F506C0FABC21C07B
:102A90000ABD1FC01ABD1DC00E94F6148AB50E944F
:102AA0000E098823A1F08AB50E941D09E82E0E9414
:102AB000F6148AB50E940E09882349F08AB50E944F
:102AC0001D0990E1E99E800D11248ABD02C084E1B8
:102AD00009C08AB5FE0119950E94F6148AB58111C4
:102AE000B9CF8CE00E949210CF9380911129882356
:102AF00021F085E69CE00E943C0A8EB38B3701F5FD
:102B00000E940F0CC0E018C08EB38B3711F4CF5F5A
:102B100011C08EB38D3739F4C11103C00E940F0C60
:102B200052C0C15007C08EB3823221F481E398E0D5
:102B30000E941F150E940F0C8EB38111E5CF43C078
:102B40008EB38F3819F08EB38E39C9F58EB38823C2
:102B500009F445C08EB38B3309F441C08EB38B3773
:102B6000D9F53DC08EB38B3719F40E94741502C09D
:102B70000E940F0C8EB3823A31F50E940F0C0E9416
:102B8000741521C08EB3883211F4CF5F15C08EB397
:102B9000893221F4CC2311F2C1500EC08EB382329F
:102BA00029F481E398E00E941F1506C0C11104C0FA
:102BB0008EB38B3309F4B2CF0E940F0C01C0C0E07A
:102BC0008EB38111DFCF80911129882359F08AE6D5
:102BD0009CE0CF910C943C0A0E940F0CB7CF8EB3AF
:102BE0008111C0CFCF910895CF938AB590E0C0975F
:102BF000AA2797FDA095BA2F809330299093312969
:102C0000A0933229B0933329CAE003C0C0E101C0C8
:102C1000C2E00E94F6148AB590E00E94F47D8ABD5D
:102C2000CA3091F48091302990913129A0913229B4
:102C3000B0913329892B8A2B8B2B31F48AB58837B5
:102C400029F38AB5823621F38AB590E0C0970A97B6
:102C500018F58AB580538ABD8AB58C1718F081E8BB
:102C60008EBB43C0EAB52091302930913129409183
:102C7000322950913329AC2FB0E00E943D7B6E0F7A
:102C8000711D811D911D60933029709331298093AE
:102C9000322990933329BDCFC03109F78AB58136E7
:102CA000F0F28AB58736D8F62AB58091302990910E
:102CB0003129A0913229B091332974E0880F991FEE
:102CC000AA1FBB1F7A95D1F7820F911DA11DB11DBF
:102CD00087559109A109B109809330299093312931
:102CE000A0933229B093332994CFCF9108958AB518
:102CF0008EBB0C94F6140E94F6148AB590E0A0E006
:102D0000B0E08093302990933129A0933229B09379
:102D1000332981E88EBB0E94F6148AB5873219F0F8
:102D200087E20E9436120C94F61410C08AB58823EC
:102D300089F08AB58A3071F08AB58D3079F40AC08D
:102D40001EBA08950E94F6140E940F0C8EB3863AA4
:102D500069F308958AB58111F5CFF2CF0E94F61478
:102D6000E5CF8AB58EBB0E94F61440E08CE694E075
:102D7000FC0154915523C1F00296319624913EB343
:102D8000351310C03AB532130DC0E42FF0E0EB5705
:102D9000FB4FE491EEBB0E94F6148EB3863A21F409
:102DA0000C9495164F5FE4CF089502C00E94F6146C
:102DB0008AB50E94E5088823C9F30C940F0CCF92C2
:102DC000DF92EF92FF921F93CF93DF93182F6A0148
:102DD0007B01E901809111298823E9F00E94B40A5E
:102DE0008FE69CE00E943C0A612F70E080E090E05A
:102DF0000E94460C80E20E94E109C701B6010E94D0
:102E0000460C209731F080E20E94E109CE010E9439
:102E10003C0A0E94B40A10933829C0923429D092F7
:102E20003529E0923629F0923729112349F0DF91B4
:102E3000CF911F91FF90EF90DF90CF900C94BB1437
:102E4000DF91CF911F91FF90EF90DF90CF90089589
:102E5000E0910E29F0910F29662371F0408551858C
:102E600062857385411551056105710541F0FA01CF
:102E700034962081318105C02481358102C020E053
:102E800030E0FC01408151816281738184810C9426
:102E9000DF16CF93DF930E94F313C0E0D0E0CE01A2
:102EA0000E94B3148F3F21F06FEFCE010E946D148A
:102EB0002196C0388FE1D80791F7DF91CF9108951F
:102EC00081E00E94970DE0910E29F0910F2934972F
:102ED000808191810E94B314682F70E080E090E0BF
:102EE0000895CF92DF92EF92FF92CF93DF93C12CA0
:102EF000D12C7601E601D701C6018F739927AA2745
:102F0000BB27892B49F40E94B40AC701B6010E946D
:102F1000460C8AE30E94E109D701C6018770992710
:102F2000AA27BB27892B19F480E20E94E109D70167
:102F3000C60183709927AA27BB27892B19F480E241
:102F40000E94E109CE010E94B314811102C08CE5F8
:102F500007C08F3F11F48EE203C0803208F48EE583
:102F60000E94E1098FEFC81AD80AE80AF80A80E837
:102F7000C8168FE1D806E104F10409F0BBCFDF9158
:102F8000CF91FF90EF90DF90CF900C94B40ACF9345
:102F9000DF930BC0EC0121960E94B314982F91503F
:102FA0009E3F38F40E94E109CE018F372FE192074E
:102FB0008CF3DF91CF910895CF92DF92EF92FF9241
:102FC0000F93CF93DF93CAE4D4E2C12CD12C7601C6
:102FD000888199810196A1F000E220E030E0A9010A
:102FE000C701B6010E94D10B8AE30E94E10980E289
:102FF0000E94E109888199810E94C7170E94B40A42
:1030000022968FEFC81AD80AE80AF80A2AE0C216F0
:10301000D104E104F104E1F6DF91CF910F91FF902B
:10302000EF90DF90CF900895FF920F931F93CF936F
:10303000DF93EC0111C0CE010E94B314F82E8FEF84
:10304000F81671F08E010F5F1F4F6FEFCE010E94D7
:103050006D14E801FF2021F0CF378FE1D8075CF332
:10306000CE01DF91CF911F910F91FF900895FF92B4
:103070000F931F93CF93DF93EB0112C08F372FE194
:103080009207ACF48C010F5F1F4F0E94B31490E0C5
:103090002F2D332727FD30958217930741F4C80160
:1030A000F990F110EBCF0E94B31491E0811190E000
:1030B000892FDF91CF911F910F91FF9008950F936A
:1030C0001F93CF93DF938C010BC0CE010E94B314EA
:1030D0008F3F71F0811103C0E801229609C08E0173
:1030E000E8012196CF378FE1D8077CF3CFE7DFE106
:1030F000CE01DF91CF911F910F910895CF93DF9370
:10310000EC0106C0CE010E94B3148F3F39F0219626
:10311000CF378FE1D807B4F3CFEFDFEFCE01DF91E8
:10312000CF910895CF93DF93EC0106C0CE010E94AA
:10313000B3148F3F39F42196CF378FE1D807B4F31A
:10314000CFEFDFEFCE01DF91CF910895CF93DF93E3
:1031500080E090E00E949218EC01CF3F8FEFD807FB
:1031600009F18CE10E94F90980E20E94E109CE0197
:103170000E94C71780E20E94E1098BE70E94E109E3
:10318000CE010E945F18EC010E94C7178DE70E94D4
:10319000E1098BE30E94E1090E94B40ACE010E947A
:1031A0005F18D8CFDF91CF9108950F931F93CF93DE
:1031B000DF938C0180E090E09C01200F311F2038CC
:1031C0003F41BCF40E947E18EC01CF3F8FEFD8073F
:1031D00081F0CE010E9492188F3F2FEF920711F4D9
:1031E00080E89FE19C012C1B3D0B2017310724F345
:1031F00003C081E10E94A10CCE01DF91CF911F910C
:103200000F9108950F931F93CF93DF938C0180E06C
:1032100090E00E949218EC018F3F2FEF920781F00F
:10322000B8010E94371881110BC0CE010E945F18AF
:103230000E945F188B372FE192075CF3CFEFDFEF2F
:10324000CE01DF91CF911F910F910895CF93DF931E
:10325000EC010E940219AC01662757FD6095762F9C
:103260004093302950933129609332297093332948
:1032700077FD03C083EA8EBB09C0CE010E948D0892
:10328000811104C080E88EBB80E001C08EB3DF9165
:10329000CF9108950F931F93CF93DF938AB590E05A
:1032A0000E94F47D082F809312290E94F614C3E136
:1032B000D9E211E00BC087E10E94A10C8AB590E031
:1032C0000E94F47D89931F5F0E94F6148AB590E0F6
:1032D0000E94D07D892B09F081C08AB58E3209F415
:1032E0007DC08AB58F3509F479C0E12FF0E0EE5E3C
:1032F000F64D1082113099F4C02FDD27C7FDD0950F
:10330000CE010E94DD7D892B61F083E88EBBCE016A
:1033100081569109AA2797FDA095BA2F2AC014308B
:1033200088F5013611F0043669F520911329332709
:1033300027FD3095205331092A30310518F5809149
:103340001429282F332727FD3095205331092A309F
:10335000310510F0811116C0013611F481E901C068
:1033600082E98EBB82E199E20E949B0990E0A0E095
:10337000B0E08093302990933129A0933229B09303
:10338000332930C041E064E371E082E199E20E94B8
:103390005409882349F0E0913029F0913129EF5602
:1033A000FB4FE491EEBB1EC041E065E871E082E1B5
:1033B00099E20E945409811106C082E199E20E94BB
:1033C0003408882319F08EE88EBB0CC082E199E2A4
:1033D000DF91CF911F910F910C942619183109F0AC
:1033E0006DCF69CFDF91CF911F910F9108950E940A
:1033F000021997FD04C00E9414180C941418089523
:103400006F927F928F929F92AF92BF92CF92DF92F4
:10341000EF92FF920F931F93CF93DF93CDB7DEB759
:1034200069970FB6F894DEBF0FBECDBF0E940F0C98
:103430008EB3803809F467C08EB3833A09F463C051
:103440008EB3843A09F45FC08EB3853A09F058C050
:103450005AC08BE70E941812C0903429D0903529A9
:10346000E0903629F0903729460156010E947415E4
:10347000E0913429F091352931978F01AE16BF06BE
:10348000D8F066246394712C6C0E7D1EF3010190BC
:103490000020E9F75F0181E0A81AB108A618B70873
:1034A000C801881999098A0D9B1D02960E94D5189A
:1034B0004C0197FF06C020C0319781818D37E9F616
:1034C000E0CFB3010E948814C5010196880D991DB3
:1034D000C81AD90A08C07C012FEFE21AF20A6081EB
:1034E0000E946D14C701F601E80FF91FE017F107FC
:1034F00090F360E00E946D1480E10E940A0B16C0F8
:1035000087E10E94921049E150E062E179E2CE0148
:1035100001960E94687ECE0101960E94F7190E94D2
:103520000F0C8EB38B3709F497CF93CF69960FB6F4
:10353000F894DEBF0FBECDBFDF91CF911F910F91E9
:10354000FF90EF90DF90CF90BF90AF909F908F90C3
:103550007F906F9008950F9300E020E040E060E0DE
:103560008CEC9CE20E9477750F910895CF93DF93C6
:1035700000D01F92CDB7DEB784E696E30E94C672F4
:10358000892B79F084E696E30E94E172039749F46F
:1035900086E00E940A0B61E070E082EE93E20E94F6
:1035A000AB7DCE0188549743C2971CF485E10E94FD
:1035B000A10C0F900F900F900F90DF91CF91089575
:1035C000CF92DF92EF92FF920F931F93CF93DF93EF
:1035D00000D01F921F92CDB7DEB70E94B61A8EB3ED
:1035E0008039E9F48E010F5F1F4FC8010E943B1222
:1035F000C12CD12C760160E0C8010E9428170E94DE
:103600000F0C0E941F20672B682B692BE9F00E948A
:10361000E01A6B017C018EB3803A69F703C18EB367
:103620008F3801F50E940F0C0E941F20672B682B1A
:10363000692B69F00E94E01A6B017C018EB3823A1B
:1036400009F0F0C00E940F0C0E947415EBC00E949C
:1036500074158EB3823A09F0E2C00E940F0C0E94EA
:10366000E01A32C08EB38B37C1F40E940F0CC12C0C
:10367000D12C76018EB3811105C08EB38D3709F040
:10368000D1C008C08EB3803AC1F38EB38D3709F034
:10369000CFC0F3CF0E940F0CC5C08EB38F3979F421
:1036A0000E940F0C8EB3882321F08EB38B3309F068
:1036B000C4C0C12CD12C760180EA8EBBB3C08EB3BE
:1036C0008E3929F40E94FF216B017C01ABC08EB3BF
:1036D000843919F40E94001AA2C08EB38639B1F55C
:1036E0000E940F0C8EB3833A09F4ACC08EB3843AB7
:1036F00009F4A8C08EB3853A09F0ABC0A3C06091AD
:1037000030297091312980913229909133290E947A
:10371000A40C0E940F0C0E941F20C0902B29D09057
:103720002C29E0902D29F0902E290E94110DDC010A
:10373000CB01B701A60107C040E050E0BA0180917B
:103740003029909131290E94081469C08EB38839BC
:10375000B9F40E940F0C8EB38A3219F40E94F3134D
:1037600028C08EB38B3309F477C08EB3882309F455
:1037700073C077C080915E2477C00E94F3134FC05E
:103780008EB38539C9F40E940F0C8EB3833A29F4A5
:1037900082E199E20E94F7190CC08EB38A3219F4C3
:1037A0000E94491706C08EB3803819F087E10E9445
:1037B00018120E940F0C33C08EB38C3929F40E946A
:1037C0000F0C0E94A6182BC08EB3893919F40E94E1
:1037D000CD0825C08EB3873929F40E940F0C0E94B2
:1037E000DC171DC08EB38A3929F40E940F0C0E9489
:1037F000711715C08EB38B3929F40E940F0C0E94EB
:10380000E6210DC08EB38D3929F40E940F0C0E9461
:10381000032105C08EB38B3311F00E94F61FC12C1B
:10382000D12C76018EB38B3311F50E940F0C1FC083
:103830000E94E01A6B017C011DCF0E941F206B01CA
:103840007C013ACF0E940F0C8EB38C3209F074CFFA
:1038500056CF87E10E9492108091602481118ACF17
:103860008CCF0E941F20862F0E94FB13D8CFB60159
:10387000C7010F900F900F900F900F90DF91CF9195
:103880001F910F91FF90EF90DF90CF9008950F93CD
:103890001F9300E010E098018EB3882341F08EB3AF
:1038A000803A29F00E94E01A8B019C01F5CFB80103
:1038B000C9011F910F910895CF92DF92EF92FF926D
:1038C000CF93DF93CDB7DEB72D970FB6F894DEBF59
:1038D0000FBECDBF8F83488759876A877B873D8717
:1038E0002C87CE0101960E943B128EB38E8360918D
:1038F00030297091312980913229909133290E9489
:10390000A40C8091382981111BC082EE93E20E94A1
:10391000897D0197A9F40E94F3131092A3240E94B9
:10392000BE0C109238291092342910923529109229
:10393000362910923729CC24CA94DC2C760120C079
:103940002C853D85488559856A857B858F810E94B8
:10395000DF160E940F0C0E94471C6B017C0161E086
:10396000CE0101960E9428178E818EBB0E94110DF8
:1039700060933029709331298093322990933329B1
:10398000B601C7012D960FB6F894DEBF0FBECDBFAE
:10399000DF91CF91FF90EF90DF90CF900895AC0131
:1039A000662757FD6095762F20E030E081E00C948B
:1039B0005C1CCF93DF93CDB7DEB769970FB6F89451
:1039C000DEBF0FBECDBF88E10E94D00848E150E0C5
:1039D000BC01CE0101960E940E7ECE0101960E948E
:1039E0002619882329F0CE0101960E94CF1C03C01E
:1039F00083E10E94F90969960FB6F894DEBF0FBE05
:103A0000CDBFDF91CF9108950F931F93CF93CAE05D
:103A100080915E248F5F8A3018F480935E2402C008
:103A200010925E24E0915E24F0E0EE0FFF1FE65B53
:103A3000FB4D80819181019609F448C00E945D6F21
:103A4000E0915E24F0E0DF01AA0FBB1FAA0FBB1FAD
:103A5000A650BC4D0D911D912D913C91601B710B99
:103A6000820B930B97FD32C081E080936024EE0FB0
:103A7000FF1FE65BFB4D808191810E945F18AC01C6
:103A8000662757FD6095762F20E030E083E00E94A6
:103A90005C1C0E945D6F20915E2444E0249F900195
:103AA0001124F901E650FC4DD901AE5DBB4D0D91DD
:103AB0001D912D913C91600F711F821F931F608398
:103AC0007183828393831092602403C0C15009F0F4
:103AD0009FCFCF911F910F910895CF93DF9300D087
:103AE0001F921F92CDB7DEB749835A836C837D83C3
:103AF0008B830E943120E0910E29F0910F292481BF
:103B0000358149815A816C817D818B810E945C1C49
:103B10006C837D838B8399830E94260D6C817D81CC
:103B20008B8199810F900F900F900F900F90DF91E4
:103B3000CF910C94A40CEF92FF920F931F93CF930D
:103B4000DF9300D0CDB7DEB71091302950913129E5
:103B500080913229909133290EB359838A839B83B4
:103B60000E940F0C59818A819B81033809F443C05C
:103B7000E8F40A3209F498C150F4063209F475C128
:103B8000083209F431C1013209F0A2C15CC10D3221
:103B900009F444C120F40B3209F09AC1D5CF0E3795
:103BA00009F448C1013809F093C122C0023909F46F
:103BB000BDC078F40D3809F4EBC020F40C3809F0DE
:103BC00087C1D0C00E3809F478C0013909F080C12E
:103BD0009EC0033A09F47DC020F4013A09F078C18F
:103BE000EFC0043A09F480C0053A09F071C18AC0F7
:103BF000612F752F62C18EB3E12EF12C8D3381F4CC
:103C00000E940F0C0E941F20F701EE0FFF1FEE0F06
:103C1000FF1FEC55FB4D608371838283938342C009
:103C20008EB38C38B9F48701000F111F000F111FDC
:103C30000C551B4DF80160817181828193810E9436
:103C4000A40CF80180819181A281B3810196A11D0C
:103C5000B11D19C08EB38D3829F58701000F111FD2
:103C6000000F111F0C551B4DF8016081718182817D
:103C700093810E94A40CF80180819181A281B3817B
:103C80000197A109B10980839183A283B3830F9027
:103C90000F900F90DF91CF911F910F91FF90EF90B8
:103CA0000C940F0C84E0189FF0011124EC55FB4D8F
:103CB000608171818281938100C1812F0F900F906B
:103CC0000F90DF91CF911F910F91FF90EF900C9487
:103CD000CE20812F952F0E945F18AC01662757FDDB
:103CE0006095762F83E003C0412FBC0182E00F90E6
:103CF0000F900F90DF91CF911F910F91FF90EF9058
:103D00000C946D1D40E050E0BA0184E0F0CF8EB31A
:103D10008D3341F40E940F0C0E941F20812F0E94BE
:103D200056700EC0812F0E942D7016C08EB38D3339
:103D300081F40E940F0C0E941F20812F0E94D671D7
:103D400060912B2970912C2980912D2990912E29F9
:103D5000B4C0812F0E940D72BC01882777FD809529
:103D6000982FABC08EB3833811F08DE044C0E09142
:103D7000302984E0E89FF0011124EC55FB4D60816F
:103D80007181828193816F5F7F4F8F4F9F4F13C0EF
:103D90008EB3833851F7E091302984E0E89FF00139
:103DA0001124EC55FB4D60817181828193816150BA
:103DB00071098109910960837183828393832BC088
:103DC0008EB3883211F088E20DC00E940F0C0E9461
:103DD0001F200E94440D0E94A40C8EB3893209F466
:103DE00056CF89E20E9436120E94F61F80912F2939
:103DF000813819F08EE00E9418128EB3893219F0C2
:103E00008FE00E94400D60912B2970912C298091A8
:103E10002D2990912E290E94A40C39CF0E949B1D20
:103E20000E94110D90958095709561957F4F8F4FF1
:103E30009F4F43C00E949B1D0E94110D609570957D
:103E4000809590953AC00E949B1D0E94110D8B0198
:103E50009C0161E070E080E090E0012B022B032BDD
:103E600061F160E070E0CB0128C08EB3833879F453
:103E70006091302970913129660F771F660F771F87
:103E80006C557B4D882777FD8095982FC4CF8EB3D6
:103E9000833A09F06ACF609130297091312980917D
:103EA000322990913329B7CF0E949B1D0E94110D9A
:103EB000FB01608170E080E090E00F900F900F9028
:103EC000DF91CF911F910F91FF90EF900C94A40C74
:103ED0008EE00E949210CF93DF931F92CDB7DEB792
:103EE0000E949B1D8EB38A3231F08EB38F3219F04F
:103EF0008EB3853251F48EB389830E940F0C0E94D9
:103F00009B1D89810E943211EDCF0F90DF91CF91DF
:103F10000895CF93DF931F92CDB7DEB70E946B1F3A
:103F20008EB38B3219F08EB38D3251F48EB38983F8
:103F30000E940F0C0E946B1F89810E943211F0CFEA
:103F40000F90DF91CF910895CF93DF931F92CDB75C
:103F5000DEB70E94891F8EB38B3819F08EB38A3872
:103F600051F48EB389830E940F0C0E94891F8981AE
:103F70000E943211F0CF0F90DF91CF910895CF932F
:103F8000DF931F92CDB7DEB70E94A41F09C08EB386
:103F900089830E940F0C0E94A41F89810E94321104
:103FA0000E94F7088111F3CF0F90DF91CF91089510
:103FB000CF93DF931F92CDB7DEB70E94BF1F8EB3A2
:103FC000863231F08EB38C3719F08EB38E3551F4C2
:103FD0008EB389830E940F0C0E94BF1F89810E94AB
:103FE0003211EDCF0F90DF91CF910895CF93DF93F2
:103FF0001F92CDB7DEB70E94D81F8EB3863889F0E6
:104000008EB3873871F081E880932F290E94110DBB
:1040100060932B2970932C2980932D2990932E291E
:104020000AC08EB389830E940F0C0E94D81F898119
:104030000E943211E2CF0F90DF91CF9108950E943C
:10404000F61F80912F29813819F08EE00E941812F6
:1040500060912B2970912C2980912D2990912E29E6
:104060000895EF92FF920F931F93CF93DF93609188
:104070000E2970910F29882777FD8095982F0E942F
:10408000A40C60E070E0CB010E94A40C60910C25B0
:1040900070910D25882777FD8095982F0E94A40C9C
:1040A00082E199E20E94EC0CC091102984E0C89F43
:1040B000E0011124C25FDA4D60E070E0CB010E94A4
:1040C000A40C8EB3883209F059C08E01EE24E3941B
:1040D000F12C0E940F0C8EB3893209F045C040C00C
:1040E00060910C2570910D25882777FD8095982F7C
:1040F0000E94A40C84ED9CE00E941F1580E00E94A9
:10410000D40C0E940F0CA701F801008002C0440FDC
:10411000551F0A94E2F7662757FD6095762F88852C
:104120009985AA85BB85842B952BA62BB72B8887D1
:104130009987AA87BB8704C00E941F200E94A40CF5
:10414000F80180819181A281B3810196A11DB11DE9
:1041500080839183A283B3838EB38C3209F4B9CF69
:104160008EB3893229F007C08EB381110CC0F8CF0D
:104170000E940F0C03C08FE00E941812D0930F29E9
:10418000C0930E2904C08EB38232B1F6A9CFDF915D
:10419000CF911F910F91FF90EF9008950F931F9370
:1041A000CF93DF9300D01F92CDB7DEB787FF0AC051
:1041B0008F7724E0829FF0011124E75CF64D0281A5
:1041C000138109C0E82FF0E0EE0FFF1FE253FD4F0F
:1041D000859194918C010E943120F8011995698391
:1041E0007A838B839C830E94260D69817A818B81DF
:1041F0009C810F900F900F900F90DF91CF911F91A6
:104200000F910C94A40C0F93CF93DF931F92CDB713
:10421000DEB78EB3833281F40E940F0C0E941F2000
:104220009EB39A3319F08AE30E94361269830E9482
:104230000F0C89810E9410118EB3823229F481EE15
:1042400099E00E941F1570C08EB38B3309F47DC0B6
:104250008EB381118CC079C00E940F0C8EB383384D
:10426000E9F58091302990913129A0913229B091BE
:10427000332987319105A105B10559F460912B29A6
:1042800070912C2980912D2990912E290E94460C05
:104290004BC081309105A105B10559F460912B29DE
:1042A00070912C2980912D2990912E290E946C12B9
:1042B0003BC088319105A105B10529F480912B29D6
:1042C0000E94E10931C04297A105B10569F58091CD
:1042D0002B2990912C290E943C0A26C08EB3813252
:1042E00020F41FC08EB30E94E10980912B29909188
:1042F0002C29A0912D29B0912E29AC01BD0141504E
:1043000051096109710940932B2950932C2960931D
:104310002D2970932E29181619061A061B0614F358
:1043200003C08BE00E9418120E940F0C0EC0609117
:104330002B2970912C2980912D2990912E2900E014
:1043400020E030E0A9010E94D10B8EB38B33A9F09D
:104350008EB3882391F014C00E940F0C8EB38B3360
:1043600019F08EB3811111C01092A32412C00E94C3
:10437000F61F8EB38A33D9F66FCF0E94B40AF4CFFA
:104380008EB38C3209F045CFE7CF80E20E94E1097D
:1043900040CF0F90DF91CF910F91089520E030E052
:1043A00041E153E0662757FD6095762F82E00E9439
:1043B0005C1C8AED9CE20E94A62B882319F085E7FD
:1043C0009CE002C087E89CE00C94FD0A0E94CE218C
:1043D0008DE192E00E941F0A84E391E00E941F0A8F
:1043E00089E10E94F90985E891E00E941F0A0E9474
:1043F000B40A0E940E0B0E94B40A0C94A618CF9225
:10440000DF92EF92FF920F931F93CF93DF93CDB77D
:10441000DEB729970FB6F894DEBF0FBECDBFC090B0
:104420003029D0903129E0903229F09033290EB311
:104430000E940F0C0E941F2080912B2990912C2903
:10444000A0912D29B0912E29B7FF08C010922B29D9
:1044500010922C2910922D2910922E2910912B297F
:104460008EB38B3719F08BE70E9436120E940F0C27
:1044700003C08EB38D37E9F4112339F08EB388234E
:10448000E1F18EB38D37B9F438C00E94E01A2EB333
:10449000222379F12EB32D3709F52BC06E837F834C
:1044A000888799870E940F0C6E817F818885998506
:1044B00033C01150E1CFCE0101960E943B120EB3E2
:1044C000C0903029D0903129E0903229F0903329E2
:1044D0000E9474158EB38111CCCFCECF6E837F83B3
:1044E000888799870E9474156E817F818885998558
:1044F000CECF2EB32D3781F4D1CF60E0CE0101961F
:104500000E9428170EBBC0923029D0923129E09228
:104510003229F0923329B9CF29960FB6F894DEBF2D
:104520000FBECDBFDF91CF911F910F91FF90EF9004
:10453000DF90CF900895CF92DF92EF92FF920F938A
:104540001F93CF93DF9300D01F92CDB7DEB760E00B
:1045500070E0CB010E94440D1616170618061906C6
:104560004CF461E070E080E090E00E94440DCB01EB
:104570000E943C0A20E030E0A9016AE0C62ED12C5E
:10458000E12CF12C84E696E329833A834B835C8308
:104590000E94C67229813A814B815C81892B91F3FB
:1045A00084E696E30E94E1728C0129813A814B8175
:1045B0005C818D30910509F455C08A30910509F46C
:1045C00051C0FC01F097EA30F10580F4AAE0B0E0B8
:1045D0000E943D7B9B01AC01CF01AA2797FDA095CE
:1045E000BA2F280F391F4A1F5B1F30C08D3291052B
:1045F00041F450954095309521953F4F4F4F5F4F77
:1046000025C08830910519F08F379105E9F42115FF
:10461000310541055105D1F0CA01B901A701960143
:104620000E947A7B88E029833A834B835C830E94D3
:10463000E10980E20E94E10988E00E94E109298104
:104640003A814B815C8102C087E001C0802F2983C1
:104650003A834B835C830E94E10929813A814B8133
:104660005C8190CF29833A834B835C830E94B40A98
:1046700029813A814B815C81B901CA010F900F9069
:104680000F900F90DF91CF911F910F91FF90EF90BE
:10469000DF90CF9008950F931F9360E070E0CB01FF
:1046A0000E94440D16161706180619064CF461E010
:1046B00070E080E090E00E94440DCB010E943C0A33
:1046C00084E696E30E94C672892BD1F384E696E3D2
:1046D0000E94E1728C01222717FD2095322FB8012C
:1046E000C9011F910F9108958AEC9AE29093CB2C07
:1046F0008093CA2C0E94D91C04C084E696E30E94D1
:10470000E17284E696E30E94C672892BB1F70895A0
:10471000AB01BC0184E696E30E9419740E94F31376
:104720000E94BE0C0E94CE2186E10E94D0084FEF6D
:1047300051E0BC018AEC9AE20E940E7E8AEC9AE279
:104740000E942619882321F08AEC9AE20E94CF1C4D
:104750000C9474238D3011F08A3061F40E94B40AF5
:10476000E091CA2CF091CB2C10828AEC9AE20E9444
:10477000CF1C07C0833039F486E00E940A0B0E94E8
:10478000F3130C947423823041F481E090915F2400
:10479000911180E080935F240895883011F08F3765
:1047A000F1F48091CA2C9091CB2C8A5C9A4219F436
:1047B00087E00C94E10988E00E94E10980E20E9410
:1047C000E10988E00E94E109E091CA2CF091CB2C2C
:1047D0003197F093CB2CE093CA2C1082089584314A
:1047E00041F481E090911129911180E08093112989
:1047F00008958531A1F488E00E940A0B0E94D91C1B
:104800008AEC9AE20E943C0AEAECFAE2019000206B
:10481000E9F73197F093CB2CE093CA2C08950C94D0
:10482000090ACF93CDE0C15019F4CF910C94041D27
:1048300084E696E30E94C672892BB9F384E696E378
:104840000E94E1720E94AA23EECF28E030E0E0E867
:10485000F0E050E071E0962F991F9927991FDF0132
:10486000A423B523AB2B09F09727660F9111682776
:10487000F695E7952150310971F7862F0895FC01CF
:10488000108212821182148213820895262FFC0155
:10489000668360E0822F0C949E711F93CF93DF9309
:1048A000EC011FEF8E810E940D721150019741F0B3
:1048B0001111F8CF82E090E09C838B8380E001C0EF
:1048C00081E0DF91CF911F9108950F931F93CF93B4
:1048D000DF93EC010E944D24882381F10E946F6FC9
:1048E0006F83788789879A8761E08E810E949E71A5
:1048F00060E08E810E94D6710E946F6F0F811885D3
:1049000029853A85601B710B820B930B643C7940BF
:104910008105910588F360E08E810E949E71CE0131
:104920000E944D24882351F082E390E00E94C16FE1
:104930001F82188619861A8681E001C080E0DF9107
:10494000CF911F910F9108950F931F93CF93DF93F2
:10495000EC018F819885A985BA85892B8A2B8B2BB1
:1049600099F10E946F6F0B851C852D853E85601B1C
:10497000710B820B930B623371058105910588F3EE
:104980000E946F6F0F81188529853A85601B710B16
:10499000820B930B6C3B72408105910588F30E945A
:1049A0006F6F0F81188529853A85601B710B820B0B
:1049B000930B6D3474408105910530F088E090E0F0
:1049C0009C838B8380E007C00E946F6F6F83788722
:1049D00089879A8781E0DF91CF911F910F91089588
:1049E000FF920F931F93CF93DF93EC01F62E0E945B
:1049F000A4248823D9F1CE010E944D24811131C015
:104A000035C00E946F6F0F81188529853A85601B1C
:104A1000710B820B930B6D3771058105910588F33E
:104A2000FF2021F060E08E810E949E710E946F6FD6
:104A30000F81188529853A85601B710B820B930BBA
:104A40006A3872408105910588F360E08E810E948A
:104A50009E710E946F6F6B877C878D879E8781E038
:104A600006C061E08E810E949E71CBCF80E0DF9115
:104A7000CF911F910F91FF900895CF92DF92EF9207
:104A8000FF920F931F93CF93DF93EC018B010E9452
:104A9000A424882309F44DC0CE010E944D24811125
:104AA0004AC047C00E946F6FCF80D884E984FA84DF
:104AB0006C197D098E099F096D3771058105910576
:104AC00088F360E08E810E949E710E946F6FCF809C
:104AD000D884E984FA846C197D098E099F096E35A2
:104AE00071408105910588F38E810E940D7221E04D
:104AF000892B09F420E0F80120830E946F6F0F8159
:104B0000188529853A85601B710B820B930B6A38D7
:104B100072408105910588F3CE010E944D248823BF
:104B200041F00E946F6F6B877C878D879E8781E045
:104B300007C080E005C061E08E810E949E71B2CF07
:104B4000DF91CF911F910F91FF90EF90DF90CF9069
:104B50000895EF92FF920F931F93CF93DF931F92CD
:104B6000CDB7DEB77C0105E110E00DC0BE016F5F7F
:104B70007F4FC7010E943D25882369F089818823E2
:104B800011F081E009C00150110981F781E090E046
:104B9000F7019483838380E00F90DF91CF911F9181
:104BA0000F91FF90EF9008950F931F93CF93DF9392
:104BB0001F921F92CDB7DEB78C01BE016E5F7F4F93
:104BC0000E943D25882341F1BE016F5F7F4FC801E0
:104BD0000E943D25811122C01FC0911103C086E0B3
:104BE00090E014C091110EC0B8016B5F7F4FC801F7
:104BF0000E941A26882319F083E090E007C084E021
:104C000090E004C0882331F085E090E0F8019483BF
:104C1000838302C081E007C080E005C08A8199815A
:104C20008111E0CFDACF0F900F90DF91CF911F91DC
:104C30000F9108959F92AF92BF92CF92DF92EF9221
:104C4000FF920F931F93CF93DF931F92CDB7DEB7E1
:104C50008C017B01FB01108288E0C82ED12C90E8EA
:104C6000A92EB12C992493942AC08981882329F0F4
:104C7000F70180818A298083B924A694F1E0CF1AB4
:104C8000D108E9F4BE016F5F7F4FC8010E943D2546
:104C9000811101C012C089818B1106C087E090E0AC
:104CA000F8019483838309C0C8010E94A925882341
:104CB00021F0C8010E94D4250BC080E009C0BE01CC
:104CC0006F5F7F4FC8010E943D258111CECFF5CF88
:104CD0000F90DF91CF911F910F91FF90EF90DF9098
:104CE000CF90BF90AF909F900895CF92DF92EF92B8
:104CF000FF920F931F93CF93DF93EC01D62E08E022
:104D000010E020E8E22EF12CCC24C39425C0FC2432
:104D100061E0811101C060E0CE010E94F02488238F
:104D2000F9F0E69401501109B9F461E06F25CE0164
:104D30000E94F0248823A1F0CE010E94A925882397
:104D400079F0CE01DF91CF911F910F91FF90EF90FD
:104D5000DF90CF900C94D4258E2D8D21C1F6D8CF25
:104D600080E0DF91CF911F910F91FF90EF90DF9046
:104D7000CF900895AF92BF92CF92DF92EF92FF92C1
:104D80000F931F93CF93DF931F92CDB7DEB78C01A4
:104D9000FC0110820E946524882309F453C06EEF41
:104DA000C8010E94752681113BC04CC070E06F5F46
:104DB0007F4F33E0660F771F3A95E1F7F801818165
:104DC00092810E942F6E7C01F80192838183808101
:104DD000F8E08F9FE00CF11C1124B12CA12C67018D
:104DE000B701C8010E941A26811103C0B11031C059
:104DF00029C0FFEFEF1AFF0AF60140816A2D8FE20A
:104E00000E942524A82EB394F8E0BF12E8CF88238F
:104E100019F089E090E012C0F80180818F5F8083F3
:104E2000F80160816F3710F2BE016F5F7F4FC801DC
:104E30000E941A26882331F08AE090E0F8019483DA
:104E4000838307C081E0F801238134812530310557
:104E500009F080E00F90DF91CF911F910F91FF90AB
:104E6000EF90DF90CF90BF90AF9008950895089590
:104E70000C942956FC018081811102C00C94B2442B
:104E800081E808950F931F93CF93DF93EB0102EC1A
:104E90001FE16991C8010E94A5810F5F1F4F023E6B
:104EA0008FE11807B1F7DF91CF911F910F9108950E
:104EB0000F931F93CF93DF93EB0102EC1FE1C80127
:104EC0000E94918189930F5F1F4F023E8FE1180767
:104ED000B1F7DF91CF911F910F91089588EF9FE176
:104EE0000C9499818CEF9FE10C949F818EEF9FE150
:104EF0000C9491818FEF9FE10C9491810F931F93FC
:104F0000CF93DF931F92CDB7DEB78C01862F6983D5
:104F10000E948D546981F801668382EF9FE10F90B2
:104F2000DF91CF911F910F910C94A581362F337093
:104F3000ECE4F1E020812C7F232B2083FC016783AC
:104F40008EEB9FE10C94A581DF92EF92FF920F937D
:104F50001F93CF93DF93EC017B018A01D22ECB010B
:104F60000E948C47FA82E982C8010E9492471C8302
:104F70000B838D2D0E947154DD8281E00E94695463
:104F800069817A8186EF9FE10E94B7816B817C8184
:104F900084EF9FE10E94B7816D8183EF9FE10E94C2
:104FA000A58160E0CE010E947E2762E0CE01DF9104
:104FB000CF911F910F91FF90EF90DF900C94962767
:104FC000EF92FF920F931F93CF93DF931F921F9245
:104FD000CDB7DEB7CB0169837A830E948F50698198
:104FE000E62E7A81F72E02EE1FE1F70161917F0133
:104FF000C8010E94A5810F5F1F4F023FFFE11F07FD
:10500000A1F70F900F90DF91CF911F910F91FF901B
:10501000EF900895AF92BF92CF92DF92EF92FF92FE
:105020000F931F93CF93DF93CDB7DEB7A1970FB642
:10503000F894DEBF0FBECDBF8C01CC24C394D12C1D
:10504000CC0EDD1E560142ECE42E4FE1F42EC701DA
:105050000E949181F50181935F01FFEFEF1AFF0A32
:1050600022EEE2162FE1F20691F7EE24E394F12C02
:10507000EC0EFD1EB701C8010E94422780E2F70135
:1050800011928A95E9F722EEE22E2FE1F22EC70166
:105090000E949181F60181936F01FFEFEF1AFF0AE1
:1050A00022EFE2162FE1F20691F7EE24E394F12CC1
:1050B000EC0EFD1EB701C8010E94E02780E1F70158
:1050C00011928A95E9F786EF9FE10E949F817C010A
:1050D0008F3FFFEF9F0761F484EF9FE10E949F8164
:1050E000019631F483EF9FE10E9491818F3F81F01F
:1050F00083EF9FE10E949181282F84EF9FE129A3F4
:105100000E949F81AC0129A1B701C8010E94A42778
:1051100082EF9FE10E9491818F3F21F0682FC801AB
:105120000E947E278EEB9FE10E9491818F3F21F0AC
:10513000682FC8010E949627A1960FB6F894DEBF8B
:105140000FBECDBFDF91CF911F910F91FF90EF90D8
:10515000DF90CF90BF90AF900895CF93DF931F92D1
:105160001F92CDB7DEB789839A830E9421560E9491
:10517000D55489819A810E940A2861E089E00E94C1
:10518000D67161E089E00F900F90DF91CF910C9480
:105190009E71CF93DF93CDB7DEB760970FB6F894CB
:1051A000DEBF0FBECDBF20E1EBE2FCE0DE011196D9
:1051B00001900D922A95E1F7BE016F5F7F4F0E942B
:1051C000E02760960FB6F894DEBF0FBECDBFDF912B
:1051D000CF910895862FBA010C949847CF93DF930F
:1051E000EB01CB010E946049811105C0CE01DF9126
:1051F000CF910C942C49DF91CF910895CF93DF93F9
:10520000EB01CB010E946049882329F0CE01DF9198
:10521000CF910C944549DF91CF910895CB010C9427
:105220006049FC01818192810895FC018381948110
:105230000895FC0185810895DC011696EC91E0311A
:1052400040F4F0E0EE0FFF1FE95AFF4E208131815C
:1052500002C021EA34E0C9010895DC011796EC91FF
:10526000E43040F4F0E0EE0FFF1FE958FF4E2081DC
:10527000318102C029EA34E0C9010895CF92DF925A
:10528000EF92FF920F931F93CF93DF938091E22CC5
:105290009091E32C892B09F45AC000EF1CE2C0E086
:1052A000D0E0DC2ED394D394FE01E256FA4FE49181
:1052B000F0E0EE0FFF1FE051FA4F25913491F90114
:1052C0008081FE01E258FA4FE4918E23C9F58D2DBD
:1052D0000E940D72C82EE82EF92EF801208130E0D0
:1052E0002E153F0569F180910D2D882301F16FE79F
:1052F00070E184E696E30E94DD754AE050E06D2D92
:1053000084E696E30E94977660EA70E184E696E38D
:105310000E94DD754AE050E0B70184E696E30E9402
:10532000797662EA70E184E696E30E94FC75F80102
:10533000C082E091E22CF091E32C6C2D8D2D19951B
:1053400021960F5F1F4FC730D10509F0AACFDF911B
:10535000CF911F910F91FF90EF90DF90CF90089524
:10536000FF920F931F93CF93DF938091E42C909142
:10537000E52C892B41F48091E62C9091E72C892B28
:1053800009F048C07EC007EF1CE2F12C8F2D0E946F
:105390002D70EC01F801208131812817390799F12E
:1053A000281B390B2B30310570F180910D2D88238E
:1053B00001F164EA70E184E696E30E94DD754AE05B
:1053C00050E06F2D84E696E30E94977660EA70E1E4
:1053D00084E696E30E94DD754AE050E0BE0184E673
:1053E00096E30E94797662EA70E184E696E30E9491
:1053F000FC75F801D183C083E091E42CF091E52C99
:10540000BE018F2D1995F3940E5F1F4FF8E0FF1228
:10541000BDCFB1CF0E94B75797FD09C00E94B757C3
:10542000853691053CF40E94B757EC0105C0C0E0F9
:10543000D0E002C0C4E6D0E08091072D90E08C1748
:105440009D07F9F080910D2D882399F064EC70E1AF
:1054500084E696E30E94DD754AE050E0BE0184E6F2
:1054600096E30E94797662EA70E184E696E30E9410
:10547000FC758C2FC093072DE091E62CF091E72C62
:1054800019958091E82C9091E92C892B69F10E9463
:105490000558182FC82FD92F2091082D3091092D8C
:1054A0002C173D0709F180910D2D882399F06CEEA2
:1054B00070E184E696E30E94DD754AE050E0BE01AB
:1054C00084E696E30E94797662EA70E184E696E3E8
:1054D0000E94FC75D093092DC093082DE091E82C13
:1054E000F091E92C812F19958091EA2C9091EB2C69
:1054F000892B71F184E10E940D7211E0892B09F072
:1055000010E0C12FD0E020910A2D30E02C173D078C
:10551000F9F080910D2D882399F061E171E184E625
:1055200096E30E94DD754AE050E0BE0184E696E312
:105530000E94797662EA70E184E696E30E94FC7547
:1055400010930A2DE091EA2CF091EB2C812F199504
:105550008091EC2C9091ED2C892B71F182E10E94CD
:105560000D7211E0892B09F010E0C12FD0E02091DD
:105570000B2D30E02C173D07F9F080910D2D88237D
:1055800099F067E371E184E696E30E94DD754AE0F5
:1055900050E0BE0184E696E30E94797662EA70E10B
:1055A00084E696E30E94FC7510930B2DE091EC2CA1
:1055B000F091ED2C812F19958091EE2C9091EF2C8C
:1055C000892B89F10E94B244182FC82FDD27C7FD0F
:1055D000D09520910C2D30E02C173D0721F18091C2
:1055E0000D2D882399F063E671E184E696E30E942D
:1055F000DD754AE050E0BE0184E696E30E947976CC
:1056000062EA70E184E696E30E94FC7510930C2D2B
:10561000E091EE2CF091EF2C812FDF91CF911F9133
:105620000F91FF901994DF91CF911F910F91FF90EF
:105630000895CF93DF93EC010E943627CE01C496E4
:105640000E943F24CE018D5B9F4F0E94FD5ACE01E8
:10565000875D9C4F0E940F2F198618861B861A861D
:105660001D861C861F861E86198A188A1B8A1A8A1E
:105670001D8A1C8AFE01ED5CFC4F42E350E060E0B5
:1056800070E04083518362837383FE01E95CFC4FC9
:1056900081E090E091838083FE01E75CFC4F2EE384
:1056A00039E231832083FE01EF5BFC4F40E65AEE86
:1056B00060E070E04083518362837383FE01EB5BA3
:1056C000FC4F91838083FE01E95BFC4F80EB99E204
:1056D000918380831BAAC45DDC4F1882DF91CF9138
:1056E0000895CF93DF93EC01875D9C4F0E94102FAC
:1056F000CE018D5B9F4F0E941A5BCE01DF91CF914F
:105700000C943727FC0180A90895FC0185A590E041
:105710000895FC0186A597A50895FC0181A9089527
:10572000865D9C4F21E0FC01208361E081E10C94C7
:10573000D671865D9C4FFC01108260E081E10C9483
:10574000D671865D9C4FFC0180810895FC01E45D6B
:10575000FC4F208121111BC0DC01D4965C9120E01C
:1057600030E040E010C0DC01D596ED91FC91D69779
:10577000E20FF31F6181611103C06281613039F072
:105780004F5F285F3F4F4513EECF80E0089581E0E3
:105790000895CF93DF93EC010E94382782E890E3CD
:1057A0000E94593ECE01875D9C4F0E943E32CE0141
:1057B0000E94A62B882339F0CE018D5B9F4FDF918D
:1057C000CF910C94525BDF91CF9108958F929F926D
:1057D000AF92BF92CF92DF92EF92FF92CF93DF937F
:1057E000EC014A015B010E945D6F6B017C01C80CFA
:1057F000D91CEA1CFB1C03C0CE010E94C92B0E94CD
:105800005D6F6C197D098E099F0997FDF5CFDF91BA
:10581000CF91FF90EF90DF90CF90BF90AF909F908F
:105820008F900895835D9C4F0C94D956835D9C4F57
:105830000C949056855C9C4F0C94D956855C9C4F7B
:105840000C949056AF92BF92CF92DF92EF92FF925C
:105850000F931F93CF93DF9300D01F92CDB7DEB786
:105860005C016801790149835A836B837C830E94C0
:10587000162CF501ED5CFC4F49815A816B817C81CE
:105880004083518362837383C5010E94122CC5013A
:105890000E941E2CF501EF5BFC4FC082D182E28298
:1058A000F382C5010F900F900F900F90DF91CF9171
:1058B0001F910F91FF90EF90DF90CF90BF90AF902E
:1058C0000C941A2CCF93DF93EC0182E00E940D72AE
:1058D0008E8B83E00E940D728F8B84E00E940D728C
:1058E000888F85E00E940D72898F86E00E940D727C
:1058F0008A8F87E00E940D728B8F88E00E940D7264
:105900008C8F80E00E942D709E8F8D8F81E00E9491
:105910002D7098A38F8F82E00E942D709AA389A387
:1059200083E00E942D709CA38BA384E00E942D70C5
:105930009EA38DA385E00E942D7098A78FA386E07B
:105940000E942D709AA789A787E00E942D709CA7BE
:105950008BA70E94B75797FD08C00E94B75785369E
:1059600091052CF40E94B75703C080E001C084E683
:105970008DA70E9405589FA78EA784E10E940D72F3
:1059800021E0892B09F020E028AB82E10E940D7212
:1059900021E0892B09F020E029ABCE010E943A27B3
:1059A0008AABDF91CF9108950F931F93CF93DF932D
:1059B000EC01FC01E45DFC4F60830E94AD2862E0D5
:1059C00084E10E949E7162E082E10E949E7161E02A
:1059D00081E10E949E7189E795E30E947158CE0192
:1059E0000E94902B45E050E060E070E0CE010E9404
:1059F000E62B8E010C5C1F4F63E1C8010E94462418
:105A0000C8010E94BA2682E293E20E94C40584E1A2
:105A10000E947157CE010E94622CCE010E94122C6E
:105A2000CE010E941A2CCE01875D9C4F0E94112F3F
:105A300082E890E3DF91CF911F910F910C94683E23
:105A40000F9300E020E040E060E083E290E30E94FA
:105A500077758AED9CE20F910C94192B8AED9CE2EC
:105A60000C94712B109268300895CF93DF9320919E
:105A70004F30309150308091513090915230280FFA
:105A8000391FF90101900020E9F73197E21BF30B70
:105A9000E536F1051CF4EF01219602C0C4E6D0E022
:105AA00080914D3090914E3090935B3080935A307E
:105AB00082E080935C3093E090935D3080935E3021
:105AC0003093623020936130C09363308FED9FE25A
:105AD000909365308093643085E590E30E94CC47D5
